:020000040040BA
:1000000090C8432075A1420071A1420071A1420035
:1000100071A1420071A1420071A1420000000000E4
:10002000000000000000000000000000B5184000C3
:1000300071A142000000000055194000BD194000A8
:1000400071A1420071A1420041AD42001DAD4200CC
:1000500071A1420071A1420071A1420071A1420050
:1000600071A1420000000000299A42003D9A42001E
:10007000519A420071A1420071A1420071A1420057
:10008000659A4200799A420071A1420071A1420032
:1000900071A1420071A1420071A1420055024000CD
:1000A00071A1420071A1420065AB420071A1420002
:1000B00071A142000917400071A1420071A14200E4
:1000C00071A1420071A1420071A1420071A14200E0
:1000D00071A1420071A1420071A1420071A14200D0
:1000E0001D17400071A1420071A1420071A14200A0
:1000F00071A1420071A1420071A1420071A14200B0
:1001000071A1420071A1420071A1420071A142009F
:1001100071A142000000000000000000000000008B
:1001200071A1420071A1420071A1420071A142007F
:1001300071A1420071A1420071A1420071A142006F
:1001400071A1420071A1420071A1420071A142005F
:1001500071A1420071A1420071A1420071A142004F
:1001600071A1420071A1420010B5054C237833B94A
:10017000044B13B10448AFF300800123237010BD7A
:10018000B00A40200000000094ED44000C4B43B145
:100190000C480D4910B5AFF300800C48036823B933
:1001A00010BD0A48036833B97047094B002BF7D0DC
:1001B000BDE810401847064B002BF5D0184700BF8C
:1001C0000000000094ED4400B40A402094ED440087
:1001D0000000000008B5084B9847084A82FB00322F
:1001E000C317C3EB621340F22D1202FB1303C83393
:1001F000034A136008BD00BF99D142004B48371B2A
:100200007CA1432010B51E200B4B98470B4C204679
:100210000B4B9847002120460A4B984705220021A6
:100220002046094B984700212046084B98470A2151
:100230002046074B984710BDA19B42000000044098
:10024000BD044000C3044000D90440000D05400037
:100250002105400000B583B000211548154B984793
:100260000190154B1A68154B1B689A4206DB002259
:10027000114B1A60124B1A68124B1A60114B1B6813
:10028000002B0FDD0F4A1368013B13600A4B1968FE
:1002900000220D4B53F821100C480D4B984703B02A
:1002A0005DF804FB044A136801331360EEE700BFF6
:1002B00000C00040EF07400074A14320CCE144009F
:1002C0007CA1432078A14320D8CA44000000044008
:1002D000CF0440002DE9F04184B005460C46164697
:1002E0001F4608461C4B98471C49009102AB03AAC5
:1002F0003846DFF88C80C04744F201023146284678
:10030000174B9847174AB2FBF7F231462846164B6F
:10031000984763B2002B17DB144A8021D1545B0944
:1003200004F01F04012202FA04F4114A42F82340A7
:100330001022314628460F4B9847314628460E4B2F
:10034000984704B0BDE8F08104F00F010B4A0A445D
:1003500080211176E3E700BFA19B420000A3E111D9
:10036000BD074000301A1E01DF07400000E400E036
:1003700000E100E0E7074000D7074000FCEC00E0A8
:10038000F70740000000000070B52DED028B84B02F
:10039000C822314B1A60314B98474FF4FA63002260
:1003A00017212F482F4CA0472F4B009300230122E9
:1003B00042F210712D482E4CA04704462D4B186078
:1003C0002D4B9847002300930246012120462B4CD9
:1003D000A0479FED2B8A2EE018EE100A294B984774
:1003E000294EB047294D0022294BA847294C00220D
:1003F000294BA0470022294BA0470022284BA847A1
:10040000284B984704AC04F8010D18EE100AB047C9
:100410000FA3D3E90023A847234B984708EE100AFF
:1004200000236422214621480068214CA0474FF454
:10043000FA60204B9847DFED207AB4EEE78AF1EEC0
:1004400010FAC9DD9FED0E8AC6E700BFAFF300804A
:10045000333333333333D33F7CA143200502400091
:1004600000C00040D5024000D501400068FA4200BB
:100470008D32400070A44320B5284000ED3240008A
:100480000000000065BD4200ADC04200F1BD420069
:100490000000F03F55C14200000028400000E03F4E
:1004A0000000564079C54200B9C5420074A44320FB
:1004B000E51E4000152B4000DB0FC94001230360FF
:1004C000704711B94160002070474160FBE7063278
:1004D00000EB820251607047836839B110B4012982
:1004E0000DD0836000205DF8044B704723F4E023B7
:1004F000120402F4E022134383600020704723F4C7
:10050000E003120502F4E0021343EAE7012901D9EE
:1005100001207047012303FA01F1016100207047B7
:10052000C0F894100020704721B9436823F00103FC
:1005300043607047436843F00103436070470162C2
:10054000704770B4846800E084688568AC42FBD171
:1005500071B1260CC6F3011505EB8505680006F0A0
:100560000F063044086014F4800F01D00C3008608E
:100570004AB1250AC5F3021101EB8101480005F0DB
:100580000F052844106043B1C4F3021202EB82024B
:10059000510004F00F040C441C6070BC7047000054
:1005A000F0B5446814F0010F05D00C293ED90C3980
:1005B0004FF4800600E000261D4CA4FB0175EF08F7
:1005C00007EB870E4FEA4E05AE464D1B2D0445EA5C
:1005D00007553543A4FB0261CE0806EB8607790078
:1005E000511A090241EA06312943A4FB0342D20809
:1005F00002EB82056C001C1B44EA02120A43836969
:1006000013F0040FFBD0036843F001030360836918
:1006100013F0010FFBD00123C3618260036823F054
:1006200001030360C06A00F00100F0BD0026C3E7CB
:10063000CDCCCCCCF0B52C4DA5FB0145AF092B4C56
:10064000A4FB015464092A4EA6FB04E5ED0805EB62
:1006500085054FEA450EA4EB0E0545EA0715A6FBF6
:100660000174E408A6FB047E4FEADE0E0EEB8E0E4C
:100670004FEA4E07A4EB070E04EB84046700CF1B80
:10068000390241EA0E312943A6FB0245ED0805EB8C
:1006900085077C00141B240444EA05521143059A83
:1006A00041EA4251A6FB0342D20802EB82056C00EC
:1006B0001C1B240644EA02720A43836913F0040FE8
:1006C000FBD0036843F002030360836913F0010F5A
:1006D000FBD00123C361C260036823F002030360FF
:1006E000C06A00F00200F0BDD34D62101F85EB51CF
:1006F000CDCCCCCC80697047C1617047034B1B687F
:10070000194341F48021016000207047CC0A402049
:1007100041B9094A136823F08073136002681343D8
:1007200003607047044A136843F0807313600268E3
:1007300013430360704700BFCC0A4020036819438D
:10074000024B1B6819430160704700BFCC0A402070
:10075000036823EA0101024B1B68194301607047DB
:10076000CC0A4020836800E0836882689342FBD112
:1007700018467047C068704770B506460D46046855
:1007800004F480344FF4803109480A4B98472DB95E
:100790004FF0FF33736024B9002070BD013D7560D8
:1007A000F9E74FF480310248034B9847F4E700BF64
:1007B00030180E40510740003D07400010B4890139
:1007C0004318022444504FF0FF319962196A5A606D
:1007D0005DF8044B7047890105234350704700EBD7
:1007E0008111CA61704700EB81114A62704700EBCA
:1007F0008111086A704770B487B0022401940824FC
:10080000029420240394802404940A9CE40B05940D
:100810000025042D0DD806AC04EB850454F8144CC7
:10082000B1FBF4F4260C844212D3864201D901357F
:10083000EFE7042D0ED82AB106A901EB850151F886
:10084000141C116043B11D60012007B070BC7047DB
:100850000020FAE70020F8E70120F6E730B4012590
:100860000EE040F82320013BDBB233B16FF0404291
:100870001A4450F822209442F3DB40F8234001351B
:100880008D4203DA50F82540EBB2EEE730BC7047FA
:1008900030B589B00446154602A8134B984702A903
:1008A0002046124B9847636843F08003636001A8B9
:1008B0000F4B984700238DF80530ADB201AA2946A9
:1008C00020460C4B984765664FF40073E36640F68C
:1008D000FF739D4205D0012303FA05F5656109B058
:1008E00030BD40F6FF75F9E7A9154000F915400045
:1008F000D91540005915400070B50C200D4CA0478B
:100900001020A0470C20A0471020A0470A4D2846E1
:100910000A4EB0470A4C2046B04700231A461D2114
:100920002046084CA0470023012228212846A04742
:1009300070BD00BFA19B420000400640311740003F
:1009400000C0034091084000024B00225A66986E96
:10095000704700BF00C00340024B01225A66986EE8
:10096000704700BF0040064038B50122144B5A6161
:10097000022203F520339A61124D00234FF4002226
:100980004FF060512846104CA04700234FF400520E
:100990004FF040512846A04705F5007500234FF45D
:1009A00000624FF020512846A04700234FF08042BC
:1009B0004FF020512846A0470448054B984738BDC2
:1009C00000C0034000120E40E9974200C2DB030062
:1009D0000100402038B50122144B9A61022203F530
:1009E00020335A61124D00234FF080424FF0605186
:1009F0002846104CA04700234FF400624FF04051AE
:100A00002846A047A5F5007500234FF400224FF0BB
:100A100020512846A04700234FF400524FF02051A8
:100A20002846A0470448054B984738BD00C00340FE
:100A300000140E40E9974200C2DB03000100402091
:100A400070B52DED048B08EE100A2E4D00234FF4E7
:100A500000224FF0405128462B4CA0472B4E00233C
:100A60004FF400624FF060513046A04700234FF032
:100A700080424FF020513046A04700234FF40052EF
:100A80004FF020512846A0470122214B5A610222F3
:100A900003F520335A611F481F4B98471F4CA0474E
:100AA00008EE900A1E4B984709EE100A1D4B984716
:100AB000A047B8EEC99AF8EEE88A89EE287AF7EEF0
:100AC000007A37EE677A07EE900AF8EEE77A27EEBB
:100AD000877AF8EEC87A67EE877A9FED137A67EE29
:100AE000877A9FED127AF4EEC77AF1EE10FA01D50B
:100AF000DFED0F7AFDEEE77A17EE900ABDEC048B7E
:100B000070BD00BF00120E40E997420000140E4075
:100B100000C00340C2DB030001004020590940002F
:100B200049094000690940000000803A0000C842BD
:100B30000000804408B5014B984708BD49094000B2
:100B400008B5014B984708BD59094000F0B5C1B040
:100B500007460E461546164B9847002407E03320FB
:100B6000144B9847144B98474DF8240001343F2C00
:100B7000F5DD40216846114B9847209B3B60104BA8
:100B80009847002404E00F4B98474DF824000134A7
:100B90003F2CF8DD40216846084B9847209B336086
:100BA0004FF49670084B9847286041B0F0BD00BFE5
:100BB0006909400001004020350B40005D084000FD
:100BC000D5094000410B4000410A400010B5A0F299
:100BD000EE20C0EB00100401184880FB04E0204424
:100BE000E417C4EBE024F02C00DDF024002C1EDB25
:100BF00002980460A1F51B71C1EB0160C1EB80019B
:100C000088010F4981FB00410144C017C0EBE1207E
:100C100000F5A070B0F5A07F01DD4FF4A0700028B2
:100C200007DB1860B2F5FA7F05DB002010BD002459
:100C3000DEE70020F5E7012010BD00BF35679ACD43
:100C40001FC297BC30B587B004460D4603AA04A95D
:100C500005A8054B984700952346039A04990598E3
:100C6000024CA04707B030BD4D0B4000CD0B4000FB
:100C70004022104B5A634FF0006203F5C0635A6381
:100C80000D4B1B6913F4007F10D10023002BF7D00C
:100C9000094BD860084B1B6913F4007F08D100236F
:100CA000002BF7D04022034B1A6370470123EDE776
:100CB0000123F5E7000E0E400080004010B5044609
:100CC0002A204E4B98474E4BB3F90020C2F3072120
:100CD0004C4B1B6913F4007F7BD10023002BF7D012
:100CE000484BD960D2B2474B1B6913F4007F72D1D5
:100CF0000023002BF7D0434BDA60CCB1424BB3F961
:100D00000020C2F307213F4B1B6913F4007F64D11D
:100D10000023002BF7D03B4BD960D2B2394B1B6973
:100D200013F4007F5BD10023002BF7D0354BDA6042
:100D3000344B1B6913F4007F53D10023002BF7D0F1
:100D40004FF00062314B1A632B202C4B9847304BED
:100D5000B3F90020C2F307212A4B1B6913F4007F6B
:100D600041D10023002BF7D0264BD960D2B2254BBE
:100D70001B6913F4007F38D10023002BF7D0214BDF
:100D8000DA60CCB1234BB3F90020C2F307211D4B2D
:100D90001B6913F4007F2AD10023002BF7D0194BD5
:100DA000D960D2B2174B1B6913F4007F21D1002305
:100DB000002BF7D0134BDA60124B1B6913F4007F42
:100DC00019D10023002BF7D04FF000620F4B1A63AC
:100DD00010BD012382E701238BE7012399E701235B
:100DE000A2E70123AAE70123BCE70123C5E701230A
:100DF000D3E70123DCE70123E4E700BF710C4000E7
:100E0000D40A402000800040D00A402000140E4048
:100E1000D60A4020D20A40202DE9F04184B00327B1
:100E200004AD45F8047D104C2046104B9847002631
:100E300000960F4B324629462046DFF84880C047CF
:100E40003246394620460B4B9847012626602946F4
:100E50002046094B9847F023E360E6600748084BBB
:100E6000984704B0BDE8F0810080004099924200AC
:100E7000005A62022D9F42006D934200B7C073007A
:100E800001004020ED924200F8B5074D4FF080760A
:100E90002E63064F3846064CA0476E633846A0477F
:100EA0002E630448A047F8BD000E0E4084B707002B
:100EB00001004020B7C0730070B51120064EB04746
:100EC000064C4FF0006525630548064B98472920DE
:100ED000B047256370BD00BF710C400000140E4088
:100EE000B7C073000100402008B5044B1880044BC4
:100EF00019800020034B984708BD00BFD40A40204A
:100F0000D60A4020BD0C400008B5044B1880044BA5
:100F100019800120034B984708BD00BFD00A40202C
:100F2000D20A4020BD0C400010B5064C2080064877
:100F3000018006490A80064A13800120054B984724
:100F400010BD00BFD40A4020D60A4020D00A40205D
:100F5000D20A4020BD0C400038B505460C462C2076
:100F6000184B984718E02A78174B1B6913F4007F39
:100F700022D10023002BF7D0134BDA602A88120A03
:100F8000114B1B6913F4007F18D10023002BF7D0FD
:100F90000D4BDA6002350C46611E002CE3D10A4B82
:100FA0001B6913F4007F0BD12346002BF7D04FF0C1
:100FB0000062064B1A6338BD0123DBE70123E5E736
:100FC0000123F2E7710C40000080004000140E4045
:100FD00010B580F0050010F0010F24D1482410F066
:100FE000020F01D044F0800410F0040F01D044F04F
:100FF000200436200F4B98470F4B1B6913F4007FDA
:1010000013D10023002BF7D00B4BDC600A4B1B697C
:1010100013F4007F0BD10023002BF7D04FF00062B8
:10102000064B1A6310BD0824D9E70123EAE7012320
:10103000F2E700BF710C40000080004000140E4039
:1010400010B5CD20A94B9847A94B1B6913F4007F1D
:1010500040F095810023002BF6D03922A44BDA60B2
:10106000A34B1B6913F4007F40F08B810023002BFE
:10107000F6D02C229E4BDA609D4B1B6913F4007F47
:1010800040F081810023002BF6D00022984BDA60DB
:10109000974B1B6913F4007F40F077810023002BEE
:1010A000F6D03422924BDA60914B1B6913F4007F27
:1010B00040F06D810023002BF6D002228C4BDA60C9
:1010C0008B4B1B6913F4007F40F063810023002BDE
:1010D000F6D04FF00062874B1A63CF20834B9847BE
:1010E000834B1B6913F4007F40F055810023002BD4
:1010F000F6D000227E4BDA607D4B1B6913F4007F33
:1011000040F04B810023002BF6D0AA22784BDA6006
:10111000774B1B6913F4007F40F041810023002BC3
:10112000F6D0B022724BDA60714B1B6913F4007F6A
:1011300040F037810023002BF6D04FF000626D4B5A
:101140001A63F720694B9847694B1B6913F4007FBA
:1011500040F029810023002BF6D03022644BDA6066
:10116000634B1B6913F4007F40F01F810023002BA9
:10117000F6D04FF000625F4B1A63C0205B4B98477C
:101180005B4B1B6913F4007F40F011810023002B9F
:10119000F6D02522564BDA60554B1B6913F4007FBD
:1011A00040F007810023002BF6D04FF00062514B36
:1011B0001A63C1204D4B98474D4B1B6913F4007FB8
:1011C00040F0F9800023002BF6D01122484BDA6062
:1011D000474B1B6913F4007F40F0EF800023002B86
:1011E000F6D04FF00062434B1A63C5203F4B98473F
:1011F0003F4B1B6913F4007F40F0E1800023002B7C
:10120000F6D05C223A4BDA60394B1B6913F4007F4D
:1012100040F0D7800023002BF6D04C22344BDA600C
:10122000334B1B6913F4007F40F0CD800023002B6B
:10123000F6D04FF000622F4B1A63C7202B4B984714
:101240002B4B1B6913F4007F40F0BF800023002B61
:10125000F6D09422264BDA60254B1B6913F4007FED
:1012600040F0B5800023002BF6D04FF00062214BF8
:101270001A63E8201D4B98471D4B1B6913F4007F30
:1012800040F0A7800023002BF6D08522184BDA60AF
:10129000174B1B6913F4007F40F09D800023002B47
:1012A000F6D00122124BDA60114B1B6913F4007F58
:1012B00040F093800023002BF6D078220C4BDA60AC
:1012C0000B4B1B6913F4007F40F089800023002B37
:1012D000F6D04FF00062074B1A63EA20034B9847A1
:1012E000034B1B6913F4007F06E000BF710C400044
:1012F0000080004000140E4073D10023002BEFD07B
:1013000000223D4BDA603C4B1B6913F4007F6AD12D
:101310000023002BF7D00022374BDA60364B1B69D5
:1013200013F4007F61D10023002BF7D04FF000624F
:10133000324B1A633A20324B98472F4B1B6913F4F8
:10134000007F54D10023002BF7D055222A4BDA60BE
:10135000294B1B6913F4007F4BD10023002BF7D0DE
:101360004FF00062254B1A630020264B9847F0236C
:101370004FF4A07200210846234CA04710BD012362
:1013800069E6012373E601237DE6012387E6012355
:1013900091E601239BE60123A9E60123B3E601239D
:1013A000BDE60123C7E60123D5E60123DFE60123DD
:1013B000EDE60123F7E6012305E701230FE701230B
:1013C0001DE7012327E7012331E701233FE701233D
:1013D00049E7012357E7012361E701236BE7012375
:1013E00075E701238AE7012393E701239CE70123A3
:1013F000A9E70123B2E700BF0080004000140E40BF
:10140000710C4000D10F4000290F400008B5044B7B
:101410009847044B9847044B9847044B984708BD9E
:10142000190E4000890E4000B90E400041104000E6
:10143000034B984201D0002070470120704700BF45
:1014400000400640034B984201D01D2070472820E1
:10145000704700BF0040064010B4CB7C73B34FF020
:1014600000434A688C68B2FBF4F2013A120292B26D
:1014700013430A7C120602F0706213434A7C12077F
:1014800002F040521343CA68134343F4000343601D
:101490000B7DABB14FF080730A681A434B7D8BB95B
:1014A0000023134383608B7D1B0203F4407343F0DE
:1014B0000C03C0F894305DF8044B70470023D0E76C
:1014C0000023E9E74FF00073EBE7000008B501EBFC
:1014D0000011034B53F8213003B1984708BD00BFFA
:1014E00000A2432030B583B0016BC36A0B40019367
:1014F000174B98470546002409E00E2C1AD804F132
:101500000C0201239340019A13420ED101340F2C97
:101510001CD80B2CF1D80123A340019A1342F5D01B
:101520002146E8B20B4B9847F0E72146E8B2094B59
:101530009847EBE704F10F0201239340019A13420D
:10154000E4D02146E8B2034B9847DFE703B030BD53
:1015500031144000CD14400030B4046E01238B40A0
:1015600024EA0304157875B123430366436D4C00E8
:101570000321A14023EA0101537803FA04F4214333
:10158000416530BC70470023EEE70B784BB9002370
:101590004A78134303674B888A8843EA02434367C8
:1015A00070470123F4E7000000220260084B43600B
:1015B000084B83604FF48023C3600223037401232C
:1015C00043748374C274037543758375704700BF99
:1015D00000A3E111808D5B000023037001234370A1
:1015E00070470023037020234370FF23438040F69D
:1015F000FF73838070470000036B13F0807F01D07E
:101600001920704710B5044601230360104B98471A
:10161000104B9C420CD0104B9C420BD0002010BDB4
:1016200000210E4A42F8231001330F2BF8D9F2E7BC
:101630000023FAE700230F2B07D803F11001002045
:10164000064A42F821000133F5E7002010BD00BF33
:101650005914400000C003400040064000A243204F
:101660000F4B994207D00B290BD806D0012303FA60
:1016700001F141627047436270474FF40063436277
:1016800070470E2905D90F31012303FA01F1416298
:1016900070470C31012303FA01F14162704700BF2A
:1016A000FF0F0047F8B506460D4617461C46124B7D
:1016B000984705EB0012114B43F8227060B10128E6
:1016C00014D10F4B4FF48072C3F884216401E4B24B
:1016D00083F828435A6009E0094B4FF00052C3F8E1
:1016E00080216401E4B283F81D431A602946304624
:1016F000044B9847F8BD00BF3114400000A24320BE
:1017000000E100E06116400008B50248024B98472E
:1017100008BD00BF00C00340E514400008B5024802
:10172000024B984708BD00BF00400640E51440004A
:1017300000B583B0114B9847114B9847114B9B78DC
:10174000FF2B1AD0EFF31083B3FA83F35B090193F5
:1017500072B6BFF35F8F00220B4B1A700199094AD2
:1017600093780133937029B10122074B1A70BFF3AC
:101770005F8F62B603B05DF804FBFEE745144000DE
:10178000A19B4200F8A14320E800402000F108039B
:1017900043604FF0FF328260C36003610023036047
:1017A000704700230361704743684B609A688A6002
:1017B0009A6851609960086103680133036070475B
:1017C00030B40D68B5F1FF3F02D000F1080202E02D
:1017D000026904E01A4653681C68A542FAD25368AD
:1017E0004B6099608A60516008610368013303604F
:1017F00030BC7047036942688168916082684168C3
:1018000051605A68904205D0002202611868013880
:101810001860704782685A60F6E700000D4B1B683D
:10182000B3F1FF3F0AD04FF0800372B683F3118803
:10183000BFF36F8FBFF34F8F62B6FEE74FF08003A9
:1018400072B683F31188BFF36F8FBFF34F8F62B609
:10185000FEE700BF6C00402006480068006880F387
:10186000088862B661B6BFF34F8FBFF36F8F00DF9A
:1018700000BF000008ED00E0DFF80C00016841F453
:10188000700101607047000088ED00E04FF0807348
:1018900040F8043C40F8081C054B40F80C3C40F86C
:1018A000202C6FF0020340F8243C4438704700BFFE
:1018B0001D184000064B19680868B0E8F04F80F327
:1018C0000988BFF36F8F4FF0000080F311887047D5
:1018D000E8C24020704700BF4FF0800372B683F328
:1018E0001188BFF36F8FBFF34F8F62B60B4A136837
:1018F00001331360012B0FD1094B1B6813F0FF0F4D
:101900000AD04FF0800372B683F31188BFF36F8F54
:10191000BFF34F8F62B6FEE7704700BF6C004020F8
:1019200004ED00E00A4B1B6853B94FF0800372B618
:1019300083F31188BFF36F8FBFF34F8F62B6FEE75B
:10194000013B034A13600BB983F31188704700BF52
:101950006C004020EFF30980BFF36F8F154B1A68BE
:101960001EF0100F08BF20ED108A20E9F04F106024
:101970004DF8043D4FF0800072B680F31188BFF33C
:101980004F8FBFF36F8F62B601F060F94FF0000028
:1019900080F3118808BC19680868B0E8F04F1EF0A1
:1019A000100F08BFB0EC108A80F30988BFF36F8F67
:1019B000704700BFE8C24020704700BF08B5EFF392
:1019C00011834FF0800272B682F31188BFF36F8FDC
:1019D000BFF34F8F62B6054B984718B14FF0805256
:1019E000034B1A60002383F3118808BDC12840000F
:1019F00004ED00E0034A044B1A600722043B1A601E
:101A0000704700BF7FA9030014E000E000B583B079
:101A1000224B1A78D2B20192FF221A701B78DBB2E5
:101A20008DF803309DF8033003F080031C4A1370D7
:101A300007221C4B1A6009E01A4A1368013B136025
:101A40009DF803305B00DBB28DF803309DF8033066
:101A500013F0800FF0D1134A13681B0203F4E06304
:101A60001360019BDBB20D4A13700F4B1A6842F4EE
:101A700060021A601A6842F060421A600B4B984785
:101A800000220B4B1A600B4B98470B4A136843F02C
:101A900040431360094B9847094B984700E400E026
:101AA000D80A4020DC0A402020ED00E0F519400073
:101AB0006C0040207918400034EF00E059184000D5
:101AC0001D184000EFF305830F2B11D9124A9B5CC0
:101AD000DBB2124A127893420AD24FF0800372B6F8
:101AE00083F31188BFF36F8FBFF34F8F62B6FEE7AA
:101AF0000B4B1B6803F4E0630A4A126893420AD94D
:101B00004FF0800372B683F31188BFF36F8FBFF37A
:101B10004F8F62B6FEE77047F0E300E0D80A40203E
:101B20000CED00E0DC0A402038B5044610F0070F49
:101B300002D020F007040834124B9847124B1B6860
:101B400093B1124B1B681C444BF2F772944211D8AC
:101B5000A34211D20C4A15681D440C4B1C600C4B5F
:101B600098475DB1284638BD0A4B23F00703064A63
:101B70001360E6E70025F2E70025F0E7064B9847FB
:101B8000F0E700BFA5284000E00A4020E4C2402062
:101B9000052A4000EC0A40204FAB420050B14FF004
:101BA000800372B683F31188BFF36F8FBFF34F8F3B
:101BB00062B6FEE77047000010B50446064B984732
:101BC000A26BE36B9A4204D00024044B9847204652
:101BD00010BD0124F9E700BFD918400025194000C5
:101BE00010B50446054B9847A36B23B10024044B62
:101BF0009847204610BD0124F9E700BFD9184000DE
:101C00002519400038B504461546026C5AB90368D8
:101C1000002B2ED140681B4B984700236360A36BB9
:101C20000133A36338BD6DB98068174B9847226CA8
:101C3000A3681344A360626893421CD32368A36023
:101C40000020ECE7C068104B9847236C5B42E268C9
:101C50001A44E26021688A4202D262681344E36057
:101C6000022D0AD1A36B53B1A36B013BA3630020E8
:101C7000D5E70020D3E70020D1E70020CFE7002000
:101C8000CDE700BF59304000B1CF420030B583B03E
:101C90000190446D74B1A26BE36B9A4215D34FF07F
:101CA000800372B683F31188BFF36F8FBFF34F8F3A
:101CB00062B6FEE74FF0800372B683F31188BFF37C
:101CC0006F8FBFF34F8F62B6FEE7A26B934203D8CC
:101CD0000025284603B030BD0A4601A920460B4B1B
:101CE00098470546A36CB3F1FF3F0AD1636A002B06
:101CF000EFD004F12400064B98470028E9D00125D5
:101D0000E7E7A36C0133A364E3E700BF051C4000D1
:101D1000252E4000026C72B110B50346C46814440D
:101D2000C4604068844201D31868D8600846D96806
:101D3000014B984710BD7047B1CF420010B5044623
:101D40001E4B984709E0636ACBB104F124001C4B99
:101D5000984788B9A36C013BA364A36C002B0EDDEC
:101D6000636D002BEFD000212046164B98470128C9
:101D7000F0D1154B9847EDE7134B9847EAE74FF042
:101D8000FF33A364114B98470C4B984702E0636CF8
:101D9000013B6364636C002B0ADD236943B104F1EA
:101DA0001000074B98470028F1D0074B9847EEE703
:101DB0004FF0FF336364054B984710BDD9184000BE
:101DC000252E40008D1C4000812F40002519400029
:101DD00038B508B304460D461D4B98472168E26BA1
:101DE000236C03FB021060600020A063A160013A35
:101DF00002FB0313E3604FF0FF336364A364FDB998
:101E000023692BB104F11000124B984701280ED022
:101E1000114B9847012038BD4FF0800372B683F311
:101E20001188BFF36F8FBFF34F8F62B6FEE74FF09D
:101E300080520A4B1A60BFF34F8FBFF36F8FE7E7F3
:101E400004F11000064DA84704F12400A847DFE77D
:101E5000D9184000252E40002519400004ED00E06F
:101E60008D174000F8B550B94FF0800372B683F378
:101E70001188BFF36F8FBFF34F8F62B6FEE7064640
:101E800019B101FB00F0013000E0002017460D46BB
:101E90005830124B9847044690B16DB92060E66304
:101EA0002564012120460E4B984784F8507000238A
:101EB0006365204630B1F8BD00F158030360EEE7DA
:101EC0000020F7E74FF0800372B683F31188BFF369
:101ED0006F8FBFF34F8F62B6FEE700BF291B400034
:101EE000D11D4000F0B585B0019270B10446B9B182
:101EF0000125DDB94FF0800372B683F31188BFF37B
:101F00006F8FBFF34F8F62B6FEE74FF0800372B65C
:101F100083F31188BFF36F8FBFF34F8F62B6FEE775
:101F2000026C0AB90125E4E70025E2E7022B0BD099
:101F30007DB94FF0800372B683F31188BFF36F8FC2
:101F4000BFF34F8F62B6FEE7E26B012AF0D00025A7
:101F5000EEE71E460F464E4B984710B9019B03B162
:101F6000002555B94FF0800372B683F31188BFF393
:101F70006F8FBFF34F8F62B6FEE700253EE032461B
:101F800039462046434B9847636D93B1314620460E
:101F9000414B9847012807D14FF080523F4B1A60C0
:101FA000BFF34F8FBFF36F8F3D4B9847012005B0B4
:101FB000F0BD636A73B104F124003A4B98470128DD
:101FC000F2D14FF08052354B1A60BFF34F8FBFF301
:101FD0006F8FE9E70028E7D04FF080522F4B1A604F
:101FE000BFF34F8FBFF36F8FDEE72D4B9847002075
:101FF000DDE720462C4B98472C4B98472C4B9847B5
:10200000A26BE36B9A42BAD3022EB8D0019B002B8D
:10201000EBD01DB902A8274B98470125204B9847C4
:10202000254B9847224B9847636CB3F1FF3F01D192
:1020300000236364A36CB3F1FF3F01D10023A364C9
:10204000174B984701A902A81C4B9847C8B92046CE
:102050001B4B98470028CCD0019904F11000194B74
:1020600098472046104B9847104B98470028C5D1F9
:102070004FF08052094B1A60BFF34F8FBFF36F8F41
:10208000BCE72046084B9847084B984700208EE74E
:102090008D2F4000051C40008D1C400004ED00E029
:1020A00025194000252E40003D1D4000052A400016
:1020B000D9184000BD2E4000A5284000ED2E40005C
:1020C000B91B4000212D400080B12DE9F0410446AC
:1020D000B9B10120D8B94FF0800372B683F31188EB
:1020E000BFF36F8FBFF34F8F62B6FEE74FF08003F1
:1020F00072B683F31188BFF36F8FBFF34F8F62B651
:10210000FEE7006C08B90120E4E70020E2E7022BBB
:102110000BD078B94FF0800372B683F31188BFF308
:102120006F8FBFF34F8F62B6FEE7E56B012DF0D0E6
:102130000020EEE71E4615468846234B9847EFF3EE
:1021400011874FF0800372B683F31188BFF36F8F4E
:10215000BFF34F8F62B6A26BE36B9A4201D3022E9C
:1021600026D1324641462046184B9847A36CB3F11E
:10217000FF3F18D1636D5BB131462046144B984741
:10218000012817D1C5B1286087F31188BDE8F08117
:10219000636A9BB104F124000E4B984780B18DB166
:1021A00001202860F0E7A36C0133A3640120EBE772
:1021B0000020E9E70120E7E70120E5E70120E3E768
:1021C0000120E1E70120DFE7C51A4000051C4000BF
:1021D0008D1C4000252E400070B170B50446036C84
:1021E000ABB14FF0800372B683F31188BFF36F8FEA
:1021F000BFF34F8F62B6FEE74FF0800372B683F3F2
:102200001188BFF36F8FBFF34F8F62B6FEE703688D
:1022100063B1012383B94FF0800372B683F3118851
:10222000BFF36F8FBFF34F8F62B6FEE743680BB902
:102230000123EFE70023EDE70D46214B9847EFF32D
:1022400011864FF0800372B683F31188BFF36F8F4E
:10225000BFF34F8F62B6A26BE36B9A4223D2A36B9C
:102260000133A363A36CB3F1FF3F17D1636D53B187
:1022700000212046134B9847012816D1BDB1286094
:1022800086F3118870BD636A9BB104F124000E4B84
:10229000984780B18DB101202860F1E7A36C01332C
:1022A000A3640120ECE70020EAE70120E8E7012031
:1022B000E6E70120E4E70120E2E70120E0E700BFD4
:1022C000C51A40008D1C4000252E4000F0B585B099
:1022D000019270B10446B9B10125DDB94FF0800318
:1022E00072B683F31188BFF36F8FBFF34F8F62B65F
:1022F000FEE74FF0800372B683F31188BFF36F8F50
:10230000BFF34F8F62B6FEE7026C0AB90125E4E71E
:102310000025E2E71F460E46524B984710B9019B35
:1023200003B1002555B94FF0800372B683F31188CD
:10233000BFF36F8FBFF34F8F62B6FEE7002546E015
:10234000E56831462046484B9847E7B9A36B013B07
:10235000A363236813B9454B9847606023696BB149
:1023600004F11000424B9847012807D14FF08052EA
:10237000404B1A60BFF34F8FBFF36F8F3E4B9847B0
:10238000012005B0F0BDE560636A002BF6D004F1D2
:102390002400374B98470028F0D04FF08052354B3F
:1023A0001A60BFF34F8FBFF36F8FE7E7324B984749
:1023B0000020E6E7314B98476068314B98472E4B39
:1023C000984732E020462F4B98472F4B98472B4B8E
:1023D0009847A36B002BB3D1019B002BE6D01DB90E
:1023E00002A82A4B98470125234B9847284B98472A
:1023F000224B9847636CB3F1FF3F01D10023636424
:10240000A36CB3F1FF3F01D10023A3641A4B98479B
:1024100001A902A81F4B9847E0B920461E4B9847D8
:102420000028CFD02368002BC4D0019904F12400E8
:102430001A4B98472046134B9847134B9847002850
:10244000C5D14FF080520B4B1A60BFF34F8FBFF3D3
:102450006F8FBCE720460B4B98470B4B98470020EB
:102460008FE700BF8D2F4000151D40001D3140003B
:10247000252E400004ED00E025194000D918400049
:10248000AD2F40003D1D4000052A4000BD2E4000FC
:10249000A5284000ED2E4000E11B4000212D40000A
:1024A0000023072B0CD8074A52F833200AB1013316
:1024B000F7E7044A42F8331002EBC3035860704751
:1024C000704700BF80A2432070B504460D461646F3
:1024D0000F4B9847636CB3F1FF3F0BD0A36CB3F184
:1024E000FF3F0AD00B4B9847A36B4BB120460A4BDA
:1024F000984770BD00236364F0E70023A364F1E70D
:102500003246294604F12400044B9847EEE700BF09
:10251000D9184000251940003D1D4000A52D400060
:102520000A4B1B681B684BB901234BB9074B1B684F
:10253000DB68DB685A68064B1A6070470023F4E7D3
:102540004FF0FF32024B1A60704700BFECC24020D0
:1025500098C3402038B50546006B024CA04728467A
:10256000A04738BD9D1B400070B506460C4619B902
:1025700080000C4B984704468CB15820094B984773
:10258000054640B1046325B1B200A521286B064B76
:102590009847284670BD2046044B9847F3E700252E
:1025A000F1E700BF291B4000E5D042009D1B400021
:1025B000F8B5044615460023092B18D9002384F8E2
:1025C0003D30042D00D90425E562A5640026E664AB
:1025D000201D0B4FB84704F11800B8472461C5F11E
:1025E0000505A5616462266584F85460F8BDC85C81
:1025F000E21882F83400CA5C002ADFD00133DBE73E
:10260000A317400070B50024042C11D90C4E30469D
:102610000C4CA0470C4D2846A0470C48A0470C483E
:10262000A0470C48A0470C4B1E600C4B1D6070BDB2
:1026300014200B4B00FB0430024B98470134E3E7B6
:1026400070C340208D17400084C34020A0C34020A9
:10265000CCC34020B8C34020ECC24020F0C2402090
:10266000F4C2402010B50F4B1B6858600E4B1B681E
:1026700098420ED304460D4B18680A4B1968043172
:102680000B4B98470B4B1B689C4201D2094B1C60BB
:1026900010BD094B1868034B19680431044B984767
:1026A00010BD00BFE8C24020E0C34020ECC2402083
:1026B000C117400098C34020F0C240202DE9F04FE0
:1026C00083B00C9FDDF834B068B18046042F15D973
:1026D0004FF0800372B683F31188BFF36F8FBFF39F
:1026E0004F8F62B6FEE74FF0800372B683F3118816
:1026F000BFF36F8FBFF34F8F62B6FEE79946164662
:102700008A460E991046354B98470446002862D0F9
:10271000036B6FF04045354403EB850323F0070559
:1027200000960F9B3A4651462D4EB0474A464146C9
:1027300028462C4B98472060BBF1000F01D0CBF806
:102740000040294B9847294A136801331360284BEE
:102750001B68002B33D1264B1C601368012B01D161
:10276000244B9847244A1368013313602364E36AB7
:10277000012505FA03F22149086802430A6003EBC8
:1027800083039A00211D1E4810441E4B98471E4B80
:102790009847284601280FD11C4B1B6863B1144B86
:1027A0001B68DB6A9F4207D94FF08052184B1A60B2
:1027B000BFF34F8FBFF36F8F03B0BDE8F08F134BA4
:1027C0001B68002BCED10A4B1B68DB6A9F42C9D322
:1027D000074B1C60C6E74FF0FF30DBE76925400080
:1027E000B12540008D184000D918400058C3402042
:1027F000E8C240200526400064C340206CC340204E
:10280000F4C24020A917400025194000B4C340205D
:1028100004ED00E010B584B000230393029301930C
:102820000093822217491848184CA04701280DD060
:1028300001280ED018BB4FF0800372B683F31188C5
:10284000BFF36F8FBFF34F8F62B6FEE7104B984711
:10285000EEE74FF0800372B683F31188BFF36F8FFA
:10286000BFF34F8F62B64FF0FF320A4B1A6001225E
:10287000094B1A600022094B1A60094B984704B0B3
:1028800010BD00BF80924400212C4000BD264000B6
:102890003132400098C34020B4C34020E0C3402000
:1028A0000D1A4000024A136801331360704700BFDD
:1028B00060C34020014B1868704700BFE0C3402050
:1028C000F8B5414B1B68002B75D1404B1A6801329B
:1028D0001A601E68D6B93E4B1B681B6853B14FF097
:1028E000800372B683F31188BFF36F8FBFF34F8FEE
:1028F00062B6FEE7364A1168364B186810601960F8
:10290000354A136801331360344B9847344B1B68C6
:102910009E4244D20024334B1B68DB6A03EB8303E3
:102920009A00314B9B58012B00D901242F4B1B6877
:102930000BB92F4B98472F4B1B6803B1012420463E
:10294000F8BD0124224B1B681B6853B3002353BB03
:102950001F4B1B68DB68DD686B689E4228D32F1D08
:102960003846254B9847AB6A1BB105F11800224B3E
:102970009847EB6A01229A402049086802430A609E
:1029800003EB83039A003946174810441C4B9847C1
:10299000EA6A144B1B68DB6A9A42D2D2D2E700245F
:1029A000D0E70123D3E74FF0FF320D4B1A60B2E7B7
:1029B0000B4A1360AFE70D4A1368013313600C4BE9
:1029C00098470024B7E700BF60C34020E0C3402021
:1029D000ECC24020F0C240209CC340202125400092
:1029E00098C34020E8C24020F4C240205CC340208D
:1029F0004DAB4200E4C34020F51740006CC34020BB
:102A0000A9174000354B1B6853B94FF0800372B6CD
:102A100083F31188BFF36F8FBFF34F8F62B6FEE76A
:102A200070B52F4B98472D4B1A68013A1A601B68F6
:102A3000002B4FD12B4B1B681BBB00242A4B984704
:102A4000204670BD294BDB68DC6804F11800284E75
:102A5000B047251D2846B047E36A01229A40254920
:102A6000086802430A6003EB83039A002946224860
:102A70001044224B9847E26A214B1B68DB6A9A425A
:102A800014D21A4B1B68002BDCD11E4B1B68ABB950
:102A90001D4B1B68012B1FD14FF080521B4B1A603E
:102AA000BFF34F8FBFF36F8F0124C7E70122164B8F
:102AB0001A60E6E7134A1368013B1360114B1B6869
:102AC000002BE5D0124B98470028F3D001220E4B83
:102AD0001A60EFE70024B1E70024AFE760C34020AD
:102AE000D918400058C3402025194000A0C34020F9
:102AF000F51740006CC34020F4C24020A9174000E5
:102B0000E8C240205CC34020E4C3402004ED00E064
:102B1000C128400010B500282AD004461A4B1B6873
:102B200053B14FF0800372B683F31188BFF36F8FF8
:102B3000BFF34F8F62B6FEE7144B9847144B1B68E8
:102B40001C44144B18680430134B984750B9114B70
:102B50001B68DA6A012303FA02F210490B6823EAC0
:102B600002030B6020460E4B98470E4B984700E03F
:102B7000002038B94FF080520B4B1A60BFF34F8FD3
:102B8000BFF36F8F10BD00BF60C34020A528400079
:102B9000E0C34020E8C24020F51740006CC340204D
:102BA00065264000052A400004ED00E0134B1B6839
:102BB00013B310B5124B9847124B1C68124B984731
:102BC00024B90E4B1B68002BF4D110BD0F4B984756
:102BD0000C4BDB68DC68201D0D4B98470D4A1368D1
:102BE000013B1360054A1368013B13600A4B984789
:102BF00020460A4B9847E4E7704700BF68C340206F
:102C0000A5284000CCC34020052A4000D918400028
:102C1000F517400058C340202519400055254000B5
:102C200008B5074B9847074B1B68012BF9D94FF0A4
:102C30008052054B1A60BFF34F8FBFF36F8FF0E7E1
:102C4000AD2B4000F4C2402004ED00E02E4B1B6889
:102C5000002B2CD110B500222C4B1A602C4B1B687A
:102C60001B6B1A68B2F1A53F03D15A68B2F1A53FB8
:102C700021D0274B186819683431264B9847264BCA
:102C80001B68B3FA83F3DBB2C3F11F0303EB8301C9
:102C90008A0022498A58BAB94FF0800372B683F38A
:102CA0001188BFF36F8FBFF34F8F62B6FEE701222B
:102CB000164B1A6070479A68B2F1A53FD9D1DB680C
:102CC000B3F1A53FD5D1DAE714489A00D418A10092
:102CD00001444C6864684C601A449100083108440F
:102CE000844209D003EB83039A000C4B13445B68C6
:102CF000DA68074B1A6010BD606803EB830291002D
:102D0000064A0A445060EDE760C34020E4C3402017
:102D1000E8C2402035AB42006CC34020F4C24020E2
:102D200038B5E8B10C46174D29681831164B98474D
:102D300028680430154B984748B92B68DA6A012394
:102D400003FA02F212490B6823EA02030B60B4F1A2
:102D5000FF3F10D00F4B186820440F4B984738BDE9
:102D60004FF0800372B683F31188BFF36F8FBFF308
:102D70004F8F62B6FEE7034B196804310748084BD2
:102D8000984738BDE8C24020C1174000F517400001
:102D90006CC34020E0C3402065264000B8C34020FB
:102DA000A9174000F0B170B515460C46164E3168B3
:102DB0001831164B984730680430154B984748B97E
:102DC0003368DA6A012303FA02F212490B6823EA34
:102DD00002030B60012D10D00F4B186820440F4BDD
:102DE000984770BD4FF0800372B683F31188BFF32C
:102DF0006F8FBFF34F8F62B6FEE7034B1968043144
:102E00000748024B984770BDE8C24020A917400010
:102E1000F51740006CC34020E0C340206526400009
:102E2000B8C3402038B5C368DC6824B304F1180582
:102E300028461A4B98471A4B1B683BBB251D284652
:102E4000164B9847E36A01229A40164908680243E4
:102E50000A6003EB83039A00294613481044134B7E
:102E60009847E26A124B1B68DB6A9A4213D9012029
:102E7000104B186038BD4FF0800372B683F3118891
:102E8000BFF36F8FBFF34F8F62B6FEE729460A4844
:102E9000064B9847E5E7002038BD00BFF517400016
:102EA00060C340206CC34020F4C24020A9174000FA
:102EB000E8C24020E4C34020A0C3402030B1094A0A
:102EC00012680260084A1268426070474FF080033F
:102ED00072B683F31188BFF36F8FBFF34F8F62B663
:102EE000FEE700BF9CC34020E0C3402038B5C0B11E
:102EF000044609B30D461D4B98471D4B19682B68B6
:102F0000B3F1FF3F2ED020681A4A1268904202D0D7
:102F10006268914228D26268881A834217D80124D5
:102F20001CE04FF0800372B683F31188BFF36F8FFC
:102F3000BFF34F8F62B6FEE74FF0800372B683F3A4
:102F40001188BFF36F8FBFF34F8F62B6FEE7521A3F
:102F500013442B602046084B98470024074B9847A2
:102F6000204638BD0024F9E70124F7E7D9184000CE
:102F7000E0C340209CC34020BD2E400025194000E6
:102F80000122014B1A607047E4C34020054B1B68C7
:102F900023B1054B1B681BB9022070470120704705
:102FA00000207047B4C3402060C34020002847D0B1
:102FB00038B50446C36A23490968C96A8B4216D2E8
:102FC0008169002905DB1F490968C96AC1F105014A
:102FD0008161606903EB830399001B4B0B449842AA
:102FE00006D0002333B9174B1B68DB6AE36238BD98
:102FF0000123F7E7251D2846144B984768B9E36A73
:1030000003EB83018A0010498A5832B901229A40A1
:103010000F490B6823EA02030B600A4B1B68DB6A4B
:10302000E36201229A400A49086802430A6003EBFE
:1030300083039A00294604481044064B984738BD3C
:10304000704700BFE8C24020F4C24020F51740009E
:103050006CC34020A917400000284FD038B5044663
:10306000294A126890420AD04FF0800372B683F367
:103070001188BFF36F8FBFF34F8F62B6FEE7C26C4C
:1030800052B94FF0800372B683F31188BFF36F8F8C
:10309000BFF34F8F62B6FEE7013AC264C06AA16C0B
:1030A00088422DD0002A2DD1251D2846174B984740
:1030B00070B9E26A02EB82018B001549CB583BB92B
:1030C000012303FA02F213490B6823EA02030B609F
:1030D000A36CE362C3F10502A261012404FA03F2C6
:1030E0000C49086802430A6003EB83039A002946EF
:1030F00007481044084B9847204638BD00207047C9
:10310000002038BD002038BDE8C24020F51740003F
:10311000F4C240206CC34020A9174000054B1B6837
:1031200023B1044B1A68D36C0133D364014B186884
:10313000704700BFE8C24020064B1A681368B3FA14
:1031400083F35B09036013B9D368186870470020E4
:10315000704700BFE8C3402008B54160006191425C
:103160000CD8D21A83699A4201D3012008BD011DEF
:103170000B4B18680B4B9847002008BD9A422CBF98
:1031800000220122994238BF00220AB1012008BD65
:10319000011D054B1868034B9847002008BD00BF70
:1031A000ECC34020C1174000E8C3402070B5154B68
:1031B0009847154B1B6813B1144B984770BD144DBD
:1031C0002846144EB047144C2046B047134B1D60A0
:1031D000134B1C60002210210520124B98470A4B0C
:1031E000186018B11049114B9847E5E74FF080037C
:1031F00072B683F31188BFF36F8FBFF34F8F62B640
:10320000FEE700BFD91840001CC44020251940002B
:10321000F0C340208D17400004C44020E8C3402084
:10322000ECC34020651E400088924400A124400069
:1032300010B584B0104B9847104B1B68BBB10023EE
:10324000039302930193042200924FF482720C497B
:103250000C480D4CA04760B94FF0800372B683F361
:103260001188BFF36F8FBFF34F8F62B6FEE7002068
:10327000F1E704B010BD00BFAD3140001CC44020D8
:103280009092440035364000BD2640002DE9F041C3
:103290000D46F9B1804617461E462C20104B984724
:1032A000044658B10F4B9847C4F80080A561E76108
:1032B0002662069B6362201D0B4B984765B94FF051
:1032C000800372B683F31188BFF36F8FBFF34F8F04
:1032D00062B6FEE70024F1E72046BDE8F08100BFBA
:1032E000291B4000AD314000A3174000C8B130B5E4
:1032F00085B015460446184A106800282AD01A4698
:1033000000910195029405291EDC144B9847022870
:1033100012D000231A4669460F480068104CA04797
:1033200016E04FF0800372B683F31188BFF36F8FFE
:10333000BFF34F8F62B6FEE70023089A694606483E
:103340000068074CA04703E000236946054CA047EE
:1033500005B030BD0020FBE71CC440208D2F40008D
:10336000E51E4000C920400070B582B01C4B1B68B0
:103370001A68002A2CD0DB681E68DC68251D2846E8
:10338000184B9847636A20469847E369012BEDD1B3
:10339000A36933449E4207D2636024612946104BDF
:1033A0001868114B9847E1E7002100910B4632461F
:1033B00020460E4CA0470028D8D14FF0800372B6AB
:1033C00083F31188BFF36F8FBFF34F8F62B6FEE7B1
:1033D000074A106802490860136002B070BD00BF60
:1033E000E8C34020F5174000C1174000ED3240000F
:1033F000ECC3402038B50546084B98470446084BB7
:103400001B68984205D300232B60054B1C602046A7
:1034100038BD044B984701232B60F6E7B5284000E0
:1034200018C440206933400070B582B005460E468E
:10343000154B1B68DB68DC68201D144B9847E3695B
:10344000012B04D0636A2046984702B070BDA16981
:103450002B463246294420460D4EB0470128F1D173
:10346000002100910B462A4620460A4DA847002815
:10347000E8D14FF0800372B683F31188BFF36F8FEA
:10348000BFF34F8F62B6FEE7E8C34020F517400058
:1034900059314000ED32400070B582B006460C460E
:1034A000174B984701A8174B9847019B23BB05462C
:1034B000B04228BF002C18D02CB1134B1B681C68DD
:1034C000B4FA84F464092246711B104B1868104B3F
:1034D0009847104B984788B94FF080520E4B1A60AE
:1034E000BFF34F8FBFF36F8F08E00A4B9847294611
:1034F00030460A4B984701E0064B984702B070BD32
:10350000A5284000F5334000ECC340201CC44020F7
:10351000C9244000052A400004ED00E029344000A1
:1035200030B589B002E0049B002B10DA00231A4664
:1035300004A939480068394CA047002869D0049B89
:10354000002BF0DA07990698059B9847EBE7069C55
:10355000636913B1201D324B984703A8314B98473C
:10356000049B092BE2D801A252F823F095354000C4
:1035700095354000953540002D354000E13540003F
:103580000B36400095354000953540002D35400004
:10359000E13540000599A5690B46024629442046BD
:1035A000214DA8470128C1D1636A20469847E369A5
:1035B000012BBBD1A269002100910B460598024462
:1035C00020461A4CA0470028B0D14FF0800372B6B5
:1035D00083F31188BFF36F8FBFF34F8F62B6FEE79F
:1035E0000599A16131B103460246014420460E4CC3
:1035F000A0479BE74FF0800372B683F31188BFF3B7
:103600006F8FBFF34F8F62B6FEE72046084B984797
:103610008CE709B030BD00BF1CC44020CD22400063
:10362000F5174000F533400059314000ED324000BD
:103630009D1B400000B583B001A8044B9847019939
:10364000034B9847034B9847F6E700BF39314000DA
:10365000993440002135400008B5034610B12BB124
:10366000586C08BD024B98470346F8E7002008BD98
:10367000D94F410008B5034610B12BB1986C08BD75
:10368000024B98470346F8E7002008BDD94F410098
:1036900008B5034610B12BB1186D08BD024B984711
:1036A0000346F8E7002008BDD94F410008B503469E
:1036B00010B12BB1586D08BD024B98470346F8E78F
:1036C000002008BDD94F410010B5002401E0074B90
:1036D000984730B190F8343013F0200FF7D00446FB
:1036E000F5E714B12046024B984710BDBD5A400083
:1036F000E56040002DE9F843037D13F0010F5FD131
:10370000904689460646C46801270025002C42D011
:103710000123002D4BD0002B4CD1002CF6D00021E2
:103720002068284B984710F0200FEFD12068264BD7
:1037300098470028EAD1F3689C4241D083B11868C9
:10374000C369002217219847F36800220E211868E8
:103750001E4B9847012833D1F36818681C4B9847D3
:10376000F4602068C369002216219847F36800229C
:103770000D211868154B9847012821D1F368186866
:10378000144B9847F3681868114B98473369BBB1DD
:103790003046984714E0337D13F0100F00D17DB907
:1037A00077B13046C847044600273B46B1E73CB1F5
:1037B0002546B0E721463046C04704468542ACD195
:1037C000BDE8F883F56F4000D95E4000A159400084
:1037D00069604000C936400008B518210148024B15
:1037E000984708BD30A443209764410008B5024AB9
:1037F0000249034B984708BD5565410041654100AA
:10380000F536400008B5024A0249034B984708BD07
:10381000636541004B654100F536400038B504460C
:10382000037DC3F3001543F01003037513F0080F75
:1038300006D0054B9847237D65F30413237538BDE7
:10384000024B9847F7E700BF05384000ED374000CE
:10385000002831D070B505460C460646174B9847F0
:1038600038B10368A3421CD001463046144B984738
:10387000F6E7A36B33B12046124B984710B1A06B0B
:10388000114B9847A5632846104B98470646104BA6
:10389000984738B12EB134602846084B9847864285
:1038A00006D070BD324600230A480B498847FEE720
:1038B0002846054B9847F4E7704700BF4165410033
:1038C00055654100F58440001D384000F564410015
:1038D00031624100989244003D624100F8B5876B27
:1038E000002F43D00546FB681B68984213D0FB6845
:1038F0001B689D422DD03E4638461D4B98470446D6
:10390000002C33D023689D4226D021463046194BE7
:1039100098470446F4E73B7D13F0010F03D03B7D4D
:103920006FF300033B753846114B9847FB688342A1
:1039300003D03846104B9847D9E738460F4B984785
:10394000FB688342F5D11868C369002217219847A4
:10395000CDE70023FB60CEE721463846084B984769
:103960002046084B98470023AB63F8BDF8BD00BF65
:1039700041654100556541001D3840004B654100DF
:10398000FD6541006D6A410018B1C3681BB118683C
:1039900070470020704700207047000010B582B0CB
:1039A00001910A4B984770B10446C36901AA1821D6
:1039B0009847012801D002B010BD01AA0C21204671
:1039C000034B9847F7E70120F5E700BF893940002E
:1039D000A1594000F8B138B50446037DC3F3400354
:1039E000994213D0037D61F3410303750A4B984755
:1039F000054658B1C369002216219847E3680022A2
:103A00000D211868054B9847012800D038BD28467D
:103A1000034B9847FAE7704789394000A1594000A5
:103A20006960400000284ED0F8B50546866B56B355
:103A3000337D13F0010F26D1F36813B11B68984250
:103A400021D000213046204B9847374630461F4B47
:103A500098470446BCB123689D4205D021463846AC
:103A60001B4B98470446F5E7F3688BB11868C369A8
:103A7000002217219847F36800220E211868154B81
:103A80009847012800D0F8BDF3681868124B984792
:103A9000F4602068C36900221621984733690BB18E
:103AA00030469847F36800220D211868094B984763
:103AB0000128E8D1F3681868074B9847F36818683D
:103AC000064B9847F8BD7047D53940004165410025
:103AD00055654100A159400069604000C936400069
:103AE00018B1007DC0F3400070470020704700000F
:103AF00090F8503013F0020F22D010B4002343632B
:103B0000836390F8461090F850208364C3648385E3
:103B1000C38501F0FC01032464F3840180F846109E
:103B200003864386A0F84230A0F8443002F0FE023B
:103B300063F3410280F85020024A13605DF8044BA1
:103B4000704700BF24C4402090F8340010F00200F9
:103B500002D00022024B1A60003018BF01207047CB
:103B600024C4402010B5044620B909E02046054B86
:103B7000984704462046044B984708B1002CF5D1DD
:103B8000204610BDBD5A4000DD68400090F82A3044
:103B900013F0020F00D17047F0B585B00446C0693C
:103BA000644B9847054690B1634B9847B8B994F871
:103BB0002A306FF3410384F82A30EB695F4A1268B8
:103BC00013212846984720465D4B984708B105B019
:103BD000F0BD0022092128465A4B9847F7E72846AE
:103BE000594B98470646B4F91430544A1268517D2F
:103BF000C1F1640101FB03F1544880FB0173C91753
:103C0000C1EB6311A182B4F91610537DC3F16403B3
:103C100003FB01F380FB0310DB17C3EB6013E382AC
:103C20006369002B6CD069462846494B9847284663
:103C3000484B9847A38A13FA80F007B22846464BB0
:103C40009847E28A12FA80F212B2032E3CD0012E7B
:103C50003FD0022E42D0042E45D002A928463C4B2C
:103C60009847BDF90020BDF908309A4203D0B4F955
:103C70001430002BABD1BDF90220BDF90A309A42B5
:103C800003D0B4F91630002BA1D194F82A306FF389
:103C9000410384F82A300023A381E381A382E382D5
:103CA000EB69264A12681321284698472046244B80
:103CB000984700288BD1002209212846214B98479C
:103CC00020461F4B984782E739462846234B9847A2
:103CD000C3E739462846224B9847BEE71146284697
:103CE000204B9847B9E7B4F9103023B1394628463C
:103CF0001B4B9847B1E7114628461A4B9847ACE74B
:103D000094F82A306FF3410384F82A30EB691321C9
:103D10002846984720460A4B984700287FF457AF1B
:103D2000002209212846074B98472046044B984714
:103D30004DE700BF653B4000B168400020C4402013
:103D4000493B4000A1594000856840001F85EB5168
:103D5000D15B4000115C4000515C40004D6140006F
:103D6000056240004562400038B5044690F83430A2
:103D700013F0080F0AD000238361C361C362036399
:103D800090F8342063F3C30280F83420A069594BC3
:103D90001860002800F093801021574B98470028A6
:103DA00038D0544B1868C369544A12680E2198479A
:103DB0002046534B9847002840F0888094F82A30DA
:103DC00013F0020F1AD194F8343013F0010F0AD116
:103DD00000220321474B18684A4B98472046484B1E
:103DE0009847002872D100220621424B1868454BA3
:103DF00098472046424B9847002867D10022072168
:103E00003C4B18683F4B984720463D4B984700284D
:103E100030D038BD374B1868C369384A12680E2154
:103E200098472046364B984700284FD194F83430B5
:103E300013F0010F04D194F82A3013F0020F46D08A
:103E400094F82A3013F0020F0AD100220621294BE0
:103E500018682C4B98472046294B9847002835D1A5
:103E600000220721234B1868264B98472046244BF5
:103E7000984758BB1F4B1868234B98470546D0B14D
:103E8000224B9847B8B194F82A3013F0020F12D0A1
:103E9000EB691BB100221221284698472046184B97
:103EA000984798B900220A212846164B9847204681
:103EB000134B984750B90023A361E3622363E3697E
:103EC00023B194F8343013F0020F0CD038BD002227
:103ED0000321084B18680B4B98472046084B98471E
:103EE0000028ADD0F2E72046094B98472046044B06
:103EF0009847EBE724C44020C16F400020C4402015
:103F0000493B4000A1594000653B4000B16840007A
:103F10008D3B400070B50446584D2868584B984773
:103F2000064620212868574B9847E8B9236A9E42E5
:103F30001AD03046544B98470546206AA8B1524BD8
:103F400098470346AB4212D0002B44D0206A002889
:103F500074D0002B55D0002215214C4B9847204699
:103F60004B4B984700285FD070BD0023EAE745B16E
:103F70003046484B98472046454B9847002865D027
:103F800070BD206A90B100221721404B984720460F
:103F90003F4B98470028E7D100220E21206A3E4B74
:103FA000984720463A4B98470028DDD10022162139
:103FB0003046364B98472046354B98470028D3D19A
:103FC00000220D213046344B98472046304B98470D
:103FD00000283BD070BD206A0028B7D000221721EE
:103FE0002A4B984720462A4B98470028BCD10022EC
:103FF0000E21206A284B98472046254B9847E8B168
:1040000070BD00221721214B98472046204B98472E
:104010000028A9D100220E21206A1F4B9847204674
:104020001B4B984750B170BD00220F21206A1A4BDC
:1040300098472046164B9847002895D14DB13046F9
:10404000144B98472046124B984708B926628BE7D5
:1040500070BD0022162130460C4B984720460C4B71
:104060009847002880D100220D2130460A4B9847FE
:104070002046074B98470028E8D075E724C4402025
:10408000B5944000C16F400011834000155A4000B4
:10409000493B4000253A4000A15940002DE9F04F2E
:1040A00083B004468069B34B984720B10546B24BB4
:1040B0009847804610B903B0BDE8F08F2846AF4B53
:1040C0009847064694F82A3013F0010F42D1A3898D
:1040D000228A13441BB22382E289618A0A4411B204
:1040E0006182032818BF01280CBF01200020B21EE6
:1040F000D2B2012A1ED90027042E1DD038B1002BC0
:10410000B8BF5B429E4A1268127D93420ADA17B327
:1041100081EAE172A2EBE172994B1B681B7D9A4226
:10412000C0F28D8094F82A3043F0010384F82A30DD
:10413000474610E04746DFE783EAE37EAEEBE37EE7
:1041400081EAE172A2EBE172964501DD4046D5E7D6
:104150004746D3E7002794F82A3013F0010FAAD07E
:10416000E368002BA7D0B5F910A0B5F912B0284626
:10417000DFF83482C047834B984700902846C047F9
:10418000814B984701902846804B984780462846A7
:104190007F4B98478146032E53D0012E63D0022EC9
:1041A00071D0042E7FD0032E18BF012E0DD0042E07
:1041B0000FD1B4F91020002AB8BF5242B4F912301E
:1041C000002BB8BF5B429A4203DDA38998440FFAE3
:1041D00088F8B31EDBB2012B40F29F80042E00F062
:1041E0008F80674B1B68D8686A4B984706464A46DB
:1041F00041462846684B984794F82A3043F002031A
:1042000084F82A30B5F910309A4500F08B80002FE1
:104210003FF451AFEB695A4A12681121284698477A
:1042200020465E4B984700287FF445AF00220821C6
:1042300028465B4B98472046584B98473BE700275A
:1042400089E7002FAFD094F82A30032262F3840369
:1042500084F82A30238A98440FFA88F8638A9944AC
:104260000FFA89F99FE7002F9DD094F82A30012298
:1042700062F3840384F82A3000236382238A9844FB
:104280000FFA88F88FE7002F8DD094F82A30022299
:1042900062F3840384F82A3000232382638A9944DA
:1042A0000FFA89F97FE7002F3FF47DAFB4F91020B2
:1042B00082EAE270A0EBE270B4F9123083EAE371B3
:1042C000A1EBE37188420DDD94F82A30012161F3FE
:1042D000840384F82A300023638218FA82F80FFAE4
:1042E00088F860E794F82A20022161F3840284F8B8
:1042F0002A200022228219FA83F90FFA89F952E75B
:10430000B4F91020002AB8BF5242B4F91230002B81
:10431000B8BF5B429A42BFF664AFE38999440FFA93
:1043200089F95EE7B5F912309B457FF470AF2846F6
:10433000DFF87480C047134B984781462846C04732
:10434000114B9847009B1A46019B4A4508BF834280
:104350007FF45DAFDFF82880D8F80030D8680D4BC7
:104360009847D8F80030811B89B2D8680D4B984720
:104370004DE700BF653B400059684000856840003C
:1043800020C44020915C4000C15C4000115C4000B2
:10439000515C4000ED5041004D614000493B400000
:1043A000A1594000F7504100BD5A4000F8B590F8BF
:1043B0002A3013F0200F53D10546846903E02046CC
:1043C000334B9847044624B12046324B9847002887
:1043D000F5D1002C44D0B5F90C3083EAE370A0EBA2
:1043E000E3702D4A1268917D884209DAB5F90E0012
:1043F0000028B8BF4042814202DD0021E9842985BE
:10440000E98C11FA83F31BB2EB84E989288D01440E
:1044100009B2298583EAE376A6EBE376D07D86426E
:1044200005DC81EAE177A7EBE177B84218DA95F885
:104430002A0040F0200085F82A0081EAE170A0EB14
:10444000E170864211DD002B0BDD032385F824305B
:10445000E3691421204698472846104B984770B1CD
:10446000F8BD022385F82430F2E7002903DD01239B
:1044700085F82430ECE7002385F82430E8E70022B3
:104480000B212046064B98472846044B9847E7E700
:10449000BD5A4000E768400020C44020493B40002E
:1044A000A1594000F8B58B7B012B2FD090F85030EC
:1044B00013F0080F0BD090F850300022826403F004
:1044C000F70362F3000380F8503080F82020866DF7
:1044D000DEB10D4604463046954B9847954B186023
:1044E00098B1616A6B68636294F82020AB7B84F8B2
:1044F0002030AB7B012B0FD0012B66D013B9012AE2
:1045000000F00A8100228B4B1A60F8BD90F8503001
:1045100013F0080FCAD0F8E7002AEDD1864B984770
:10452000A06469680A2909D01B2922D0092930D042
:104530000B293CD03046814B9847E3E730467F4B10
:1045400098477C4B1868C36900220B2198471C349C
:1045500020467B4B98470028D7D100221146754B47
:104560001868784B98472046754B98470028C9D063
:10457000F8BD3046714B9847002214216D4B1868E6
:10458000704B984704F11C006D4B98470028B9D038
:10459000F8BD002130466C4B984730466B4B98472E
:1045A00004F11C00664B98470028ABD0F8BD0021F1
:1045B0003046654B98473046654B984704F11C00E0
:1045C0005F4B984700289DD0F8BD012A96D16B68B3
:1045D0000A2B24D094F8503013F0010F37D094F800
:1045E000503013F0010F8DD0E06C5A4B9847638B1D
:1045F000984287D9504B9847E06469680A2953D09C
:1046000009296BD00B2978D030464C4B984704F1E0
:104610001C004B4B984700283FF474AFF8BDC369AA
:1046200000220C21984704F11C073846444B984758
:1046300000287FF46AAF002201213E4B1868414BED
:10464000984738463E4B98470028C3D05DE7A06C9A
:10465000404B9847238B9842C1D994F8503043F08F
:10466000010384F850306B680A2B7FF44BAF324B58
:104670009847E0642F4B1868C36900220F219847C0
:104680001C3420462E4B984700287FF43EAF002272
:104690000421284B18682B4B98472046284B9847F5
:1046A00000283FF42FAFF8BD224B1868C3690022E1
:1046B000102198471C342046214B984700287FF44E
:1046C00024AF002205211B4B18681E4B984720463B
:1046D0001B4B984700283FF415AFF8BD002130462A
:1046E000194B98473046194B984704F11C00144B5E
:1046F000984700283FF406AFF8BD00213046124B22
:1047000098473046124B984704F11C000C4B9847D1
:1047100000283FF4F7AEF8BD69600A291CD00022DA
:10472000A26494F8503062F3000384F85030E9E654
:104730008939400024C44020F15341009D39400094
:10474000493B4000A1594000D5394000ED374000B9
:10475000053840000D544100C36900220E219847DE
:1047600004F11C052846174B984700287FF4CDAE6E
:1047700094F8503013F0010F0BD100220321124B9B
:104780001868124B984728460E4B984700287FF42C
:10479000BCAE002206210C4B18680C4B98472846EB
:1047A000084B984700287FF4B0AE00220721064B43
:1047B0001868064B98472846024B98470028AED009
:1047C000A3E600BF493B400024C44020A15940005B
:1047D0008B7B012B40D0F0B583B090F8503013F0B4
:1047E000080F0BD090F850300022826403F0F703DA
:1047F00062F3000380F8503080F8202090F8207099
:104800008B7B80F820304B684362866D16B30C4674
:1048100005463046904B9847904B1860D0B1A37B2B
:104820000BB10023A38130468B4B98478B4B18600C
:1048300080B1A37B012B15D0012B68D013B9012FB8
:1048400000F0FE800022854B1A60B4F90C30002B7A
:1048500040F0AA8103B0F0BD90F8503013F0080F7B
:10486000B9D07047002FE7D17D4B9847A8646168A5
:104870000A2909D0142930D0132933D01B2936D066
:104880003046784B9847DDE702AA002302F8013D45
:10489000724B1868C369192198473046724B984784
:1048A00018B99DF80730002BCCD16C4B1868C36940
:1048B00000220B2198471C3528466C4B984700284E
:1048C000C8D100221146654B1868694B98472846A5
:1048D000664B98470028B5D0BCE7B4F90C30013BD3
:1048E000A381AFE7B4F90C300133A381AAE73046C6
:1048F0005C4B984700221421584B18685C4B984732
:1049000005F11C00594B984700289BD0A2E7012FC6
:1049100094D195F8503013F0010F1FD095F8503016
:1049200013F0010F8ED0E86C524B98476B8B984276
:1049300088D94B4B9847E86461680A295CD01429F0
:1049400074D0132977D03046464B984705F11C00A8
:10495000464B984700283FF475AF7BE7A86C454B62
:1049600098472B8B9842D9D995F8503043F00103E2
:1049700085F850303A4B9847E86463680A2B06D0B4
:1049800095F8503043F0010385F850305AE702AAF9
:10499000002302F8013D314B1868C369192198477B
:1049A0009DF8073073B13046334B98470128E7D95B
:1049B00030462D4B984780F00101C9B230462F4B4D
:1049C0009847DDE7254B1868C36900220F219847F7
:1049D00005F11C073846254B984700287FF43AAF6D
:1049E000002204211D4B1868214B984738461F4B65
:1049F00098470028C4D02DE7184B1868C3690022D7
:104A0000102198471C352846184B984700287FF4FA
:104A100021AF00220521114B1868154B98472846F5
:104A2000124B984700283FF40DAF13E7B4F90C3050
:104A3000013BA38106E7B4F90C300133A38101E700
:104A400063680A2B1CD00022AA6495F8503062F3E8
:104A5000000385F85030F5E68939400024C4402031
:104A6000F15341009D394000E13A4000493B40008C
:104A7000A15940000D54410045674100D53940001F
:104A800002AA002302F8013DC369192198479DF845
:104A90000730002B44D0337D13F0020F79D095F806
:104AA000503013F0010F04D03046604B9847012876
:104AB000C9D85F4B1868C36900220E21984705F1D9
:104AC0001C0738465B4B984700287FF4C3AE002292
:104AD0000321574B1868584B98473846554B984711
:104AE00000287FF4B7AE00220621514B1868524BC4
:104AF000984738464F4B984700287FF4ABAE0022CA
:104B000007214B4B18684C4B98473846494B984700
:104B100000287FF49FAE0A213046484B984792E721
:104B2000434B1868C36900220E21984705F11C0702
:104B30003846404B984700287FF48CAE95F85030AB
:104B400013F0010F1ED038463A4B984700287FF4E7
:104B500081AE00220621364B1868374B98473846FD
:104B6000344B984700287FF475AE00220721304B64
:104B70001868314B984738462E4B984700283FF429
:104B800062AF67E600220321294B18682A4B984739
:104B9000D9E795F8503013F0010F7FF454AF01219D
:104BA0003046274B98474EE73046264B9847F8B19A
:104BB000B4F90C30002B0FDB002B7FF74BAE002538
:104BC00011E0142130461D4B98470135B4F90C30E3
:104BD0005B429D42F5DB3DE60025F7E713213046B9
:104BE000164B98470135B4F90C309D42F6DB31E69F
:104BF000B4F90C30002B0EDB002B7FF72BAE002519
:104C00000FE03046104B98470135B4F90C305B4249
:104C10009D42F6DB1EE60025F7E730460B4B984732
:104C20000135B4F90C309D42F7DB13E645674100CE
:104C300024C44020493B4000A15940009D39400018
:104C4000D5394000E13A400005384000ED374000DA
:104C5000014B1868704700BF20C4402008B100789D
:104C60007047002070470000B0B1034690F8502014
:104C700042F0020280F85020174A1268904204D095
:104C800039B1DA6B914204D070470020134A1060AA
:104C9000F6E70022DA63704710B50C460020104B8F
:104CA000984707E000220D4B1A600EE00023C36313
:104CB0000B4B984778B190F8503043F0020380F8DE
:104CC0005030054B1B689842ECD0002CEED0C36BE3
:104CD0009C42EDD1EAE710BD20C4402024C440200E
:104CE0006553410008B500210846014B984708BDAF
:104CF000694C400038B5044690F850306FF300031B
:104D000080F85030024DA847E064A847A06438BD41
:104D1000F153410058B10278012A18BF032A0AD181
:104D2000B0F920200A80B0F922304B807047002370
:104D30000B804B8070474FF6FF730B804B807047A2
:104D400048B10378012B18BF032B06D190F8460019
:104D5000C0F340007047002070470020704758B1F2
:104D60000278012A18BF032A0AD1B0F928200A8044
:104D7000B0F92A304B80704700230B804B8070477E
:104D800000230B804B807047014B1868704700BFB1
:104D900024C440202DE9F04180460F46214B98471E
:104DA00000283CD008F1040630461F4B98470446C3
:104DB00000255CB139462046FFF7ECFF054628B9CF
:104DC00021463046194B98470446F2E715B128466C
:104DD000BDE8F0814046164B98470028F7D044467E
:104DE00003E02046134B9847044624B12046124B5B
:104DF00098470028F5D040214046104B984750B9BD
:104E0000002CE4D1002140460D4B984710F0200FB4
:104E1000DDD14546DBE7002CD9D14546D7E7002553
:104E2000D5E700BF758540004165410055654100EB
:104E30002D684000BD5A4000D95E4000C16F40005F
:104E4000F56F400083695D4A136090F8342012F0DA
:104E5000080F40F0BC8170B50446594A1268D56805
:104E600043B390F82A2012F0020F45D000233BB143
:104E7000E3692BB10023A382E3822046514B98477C
:104E8000A5694E4B1B689D4200F0DE80B4F90430EA
:104E90002381B4F906306381002D60D0EB69484A64
:104EA00012680D21284698472046474B984700280E
:104EB0004BD070BD2846454B9847261D3146444B84
:104EC00098473E4B186020B13C4B1B6853B10123FF
:104ED000CDE728463F4B984731463D4B9847374BE7
:104EE0001860F1E728463C4B98473146384B9847C5
:104EF000324B18600123BAE710211846374B984708
:104F000008B10023B3E72846304B9847261D3146A9
:104F10002F4B9847294B186020B1284B1B6853B181
:104F20000123A4E728462B4B98473146284B984746
:104F3000224B1860F1E72846274B98473146244B0F
:104F400098471E4B1860012391E700220221284652
:104F5000234B984720461C4B98470028A9D1174B54
:104F60001B68A361E361002B6ED01E4B9847E06283
:104F700094F834306FF3000384F8343094F82A2026
:104F800000232382638202F0FC02032161F3840286
:104F900063F3451284F82A20E3842385A381E38107
:104FA000064A10681D4601E00F4B9847F0B190F893
:104FB000343013F0200FF7D00546F5E724C4402025
:104FC00020C440208D3B4000493B4000AD364000AE
:104FD000954D40009136400059364000C16F400069
:104FE000A1594000F1534100BD5A400015B1284677
:104FF000774B9847774B1868C369774A12680B213B
:1050000098472046754B984700287FF452AF0022FE
:105010001146704B1868724B984720466F4B984763
:1050200000287FF446AF6C4B186890F8503013F0AE
:10503000080F7FF43EAF1C306A4B98472046674B01
:10504000984700287FF435AFA0882389C01A00B2A2
:10505000A081E1886389C91A09B2E181B4F91420F9
:1050600002EB8202D210A282B4F9163003EB830362
:10507000DB10E382002A7BDB002A01DD013AA282F9
:10508000002B78DB002B01DD013BE382A38A03EBDD
:105090006000A082E38A03EB6101E1824D4B186856
:1050A00000283FF406AFC3694B4A12680C219847A9
:1050B00020464A4B984700287FF4FBAE002201218E
:1050C000444B1868464B98472046444B9847002865
:1050D0007FF4EFAE404B1B6893F8503013F0080F8D
:1050E0007FF4E7AE2046404B984720463F4B984719
:1050F00020463A4B984700287FF4DBAE94F82A30DC
:1051000013F0020F04D194F8343013F0010F35D0AE
:1051100094F82A3013F0020F7FF4CBAE94F83430B9
:1051200013F0010F3FF4C5AE206B314B98472A4B6B
:105130001A68538B98427FF6BCAE264B1868C36939
:10514000102198472046254B984700287FF4B1AEA0
:10515000002205211F4B1868214B984720461F4B02
:10516000984700287FF4A5AE224B98472063A0E61D
:105170000132A28284E70133E38287E7E06A1C4BB5
:105180009847154B1A68138B9842C1D9114B186870
:10519000C3690F2198472046104B984700287FF499
:1051A00088AE002204210B4B18680D4B984720460F
:1051B0000A4B984700287FF47CAE94F8343043F0D3
:1051C000010384F834300B4B98472063A0E7704705
:1051D000E560400024C4402020C44020493B4000FA
:1051E000A1594000153F40009D404000AD434000A4
:1051F0000D544100F153410038B504460D46406D51
:1052000048B1626A0B689A4205D0B1F90220B1F93F
:1052100000100D4B9847B5F900302384B5F90230E2
:105220006384237F012B0AD004F11C00074B9847AD
:10523000B4F92030A384B4F92230E38438BD04F1FA
:105240001C00034B9847F3E74D614000693D400067
:10525000454E4000C36D002B3AD02DE9F0410D467C
:1052600004468A6803EB820133F92270B1F90280A7
:10527000AB7B012B1AD004F11C063046154B984726
:1052800090B92784A4F82280AB7B012B1CD0304638
:10529000114B984730460F4B984728B9B4F9203046
:1052A000A384B4F92230E384BDE8F081B0F924305E
:1052B0009F4204D004F11C00074B9847DBE7B0F98C
:1052C00026309845F6D1D6E73046044B9847E1E7BB
:1052D000704700BF493B4000693D4000454E4000DB
:1052E000C0682E4B1860C368002B55D030B585B010
:1052F0002B4B9847294B1B6893F8503013F0040F41
:1053000018D005B030BDDC68264B9847C4F884013E
:1053100025E0BDF90C2012B3DC68224B9847C4F895
:1053200084011CE06946204B98471C4B18681C4BB5
:1053300098475DB3194C694620681C4B9847054651
:105340002068174B98470022194B1A6023689DF874
:105350000E201A77012AD6D01A78042AD9D00F4BFA
:1053600018680378012BDDD0022B07D0042B09D05D
:10537000032BDAD169460F4B9847D6E769460E4BA7
:105380009847D2E769460D4B9847CEE70023034A7A
:105390001360074A1360B4E7704700BF20C4402081
:1053A000F13A4000F1534100F95140008953410066
:1053B00024C4402055524000A5444000D14740003D
:1053C000054B1B6800E09B682BB11A688242FAD13A
:1053D00001221A71F7E770472CC44020502817D0DB
:1053E0000CD9FF2814D02ED86E2811D026D97F28AA
:1053F0000ED091280CD0722815D109E0182809D9AF
:10540000332816D8302803D2202801D02C280AD1DE
:10541000012070471528FBD2072806D80428F7D2A8
:1054200001380128F4D90020704710380328FAD831
:10543000EEE74028ECD04228F5D1E9E75428E7D040
:105440006028F0D1E4E748F283039842E0D00CD919
:1054500048F2A0039842DBD048F2AD039842D7D07F
:1054600048F28E039842DED1D2E748F20C0398420C
:10547000CED0D8D3024B0344012BD4D8C8E700BF09
:10548000807FFFFFF8B50E461546071D38460F4BC7
:105490009847044617E0B2B2238A13442382ABB282
:1054A000618A19446182A18A0A44A282E28A134471
:1054B000E3822A4631462046FFF7E4FF214638467C
:1054C000034B98470446002CE5D1F8BD41654100E7
:1054D0005565410038B504460D46BC22554B9847EA
:1054E000002800F08680B4F99220B5F992309A42F3
:1054F00001D0022038BDB4F99420B5F994309A4215
:1055000001D0022038BDB4F99820B5F996309A42FE
:1055100001D0022038BDB4F99620934201D0022078
:1055200038BDB4F99A20B5F99A309A4201D00220D8
:1055300038BDB4F99C20B5F99C309A4201D00220C4
:1055400038BDB4F99E20B5F99E309A4253D1B4F9D2
:10555000A020B5F9A2309A424FD1B4F9A2209342CB
:105560004DD1B4F9A620B5F9A6309A4249D1B4F983
:10557000A820B5F9A8309A4245D1B4F9AA20B5F9C6
:10558000AA309A4241D1B4F9AC20B5F9AC309A4274
:105590003DD1B4F91A20B5F91A309A4239D1B4F98B
:1055A0001C20B5F91C309A4235D1226C2B6C9A42E2
:1055B00033D194F8502095F850309A422FD1B4F955
:1055C0002820B5F928309A422BD1B4F92220B5F918
:1055D00022309A4227D1B4F92420B5F924309A42D6
:1055E00023D1B4F92620B5F926309A421FD00220E3
:1055F00038BD002038BD022038BD022038BD022051
:1056000038BD022038BD022038BD022038BD02203E
:1056100038BD022038BD022038BD022038BD02202E
:1056200038BD022038BD022038BD022038BD01201F
:1056300038BD00BF51CF4200224B1B7803B17047E9
:1056400010B584B0204B9847204B9847204B984783
:10565000204B9847204B984710212048204CA047CA
:105660004FF4C4711F48A04760211F48A0474FF066
:105670000000162363F3C700142262F30C206FF3BB
:105680004F304FF000010D2262F3C70163F30C218C
:105690006FF34F31154B0293019300930222144C88
:1056A000A047144B9847144B9847144B9847144BFA
:1056B00098470120134B98470122024B1A7004B0FF
:1056C00010BD00BF30C4402085694100057D410008
:1056D000C16241002D564100D937400080A34320CC
:1056E00097644100DCA24320D0A243208C004020DC
:1056F000C5DE41008D88410085994000E54C4000A1
:10570000A13D41009133410010B50446064B984736
:1057100028B922460023054805498847FEE7214667
:105720000448054B984710BD31624100AC924400DB
:105730003D624100C58440009D60410038B504468B
:105740000D460A4B984740B16DB9002294F83430A9
:1057500062F3C71384F8343038BD2246002304486E
:1057600004498847FEE70122F0E700BF31624100AB
:10577000AC9244003D62410038B504460D46084BEA
:10578000984730B194F8343065F3000384F834302E
:1057900038BD22460023034803498847FEE700BF7F
:1057A00031624100AC9244003D62410038B504468C
:1057B0000D460A4B984758B11DB101212046084BB0
:1057C000984794F8343065F3410384F8343038BD99
:1057D00022460023034804498847FEE7316241001E
:1057E00079574000AC9244003D62410038B5044610
:1057F0000D46084B984730B194F8343065F3820376
:1058000084F8343038BD22460023034803498847D2
:10581000FEE700BF31624100AC9244003D624100AE
:1058200038B504460D46084B984730B194F83430EB
:1058300065F3C30384F8343038BD2246002303489F
:1058400003498847FEE700BF31624100AC92440043
:105850003D62410038B504460D46074B984728B1D4
:1058600094F83C301D4384F83C5038BD2246002358
:10587000024803498847FEE731624100AC92440088
:105880003D62410038B504460D46084B984730B19B
:1058900094F83C3023EA050384F83C3038BD2246B6
:1058A0000023034803498847FEE700BF31624100F7
:1058B000AC9244003D62410038B504460D46054BAC
:1058C000984708B1A56138BD224600230248034924
:1058D0008847FEE731624100AC9244003D624100DE
:1058E0002DE9F04184B0074615461E460C4621B10D
:1058F0000846244B9847002834D0019400238DF8A3
:1059000008300393204B1B6803B1039301AA1E4B7D
:105910001A601E4BD3F800801E601D4B984718B1CB
:1059200083680BB12946984717B129462046B847E6
:10593000164BC3F80080144B1A6892681A609DF8E1
:105940000830ABB9C4B194F8343013F0400F15D01F
:105950002068A8B1324629460E4B9847012808D046
:10596000002006E0224600230B480C498847FEE74A
:10597000002004B0BDE8F0810120FAE70120F8E73B
:105980000120F6E7316241002CC4402028C44020A9
:10599000514C4000A1594000AC9244003D6241008E
:1059A00098B170B5044616460D46094B984728B97C
:1059B00022460023074808498847FEE733462A461F
:1059C0002146A069054CA04770BD0120704700BF6B
:1059D00031624100AC9244003D624100E158400018
:1059E000014B1868704700BF28C4402038B50446F2
:1059F0000D46054B984708B1E56138BD22460023A6
:105A0000024803498847FEE731624100AC924400F6
:105A10003D62410020B110B5C4691CB1A04710BD62
:105A200001207047012010BD38B504460D46054BD6
:105A3000984708B1256238BD224600230248034931
:105A40008847FEE731624100AC9244003D6241006C
:105A500038B504460D46094B984728B9224600231D
:105A6000074808498847FEE72946606A064B984779
:105A7000034600B16062184638BD00BF3162410084
:105A8000AC9244003D624100D96C410010B504461F
:105A9000074B984728B922460023064806498847FD
:105AA000FEE700226286E36906212046984710BD82
:105AB00031624100AC9244003D62410010B50446A1
:105AC000054B984708B1206810BD224600230348C3
:105AD00003498847FEE700BF31624100AC924400B1
